{
    "abi": [
        {
            "type": "constructor",
            "inputs": [
                {
                    "name": "maxMintsPerAddress",
                    "type": "uint256",
                    "internalType": "uint256"
                },
                {
                    "name": "admin1",
                    "type": "address",
                    "internalType": "address"
                },
                {
                    "name": "admin2",
                    "type": "address",
                    "internalType": "address"
                }
            ],
            "stateMutability": "nonpayable"
        },
        {
            "type": "function",
            "name": "ADMIN_ROLE",
            "inputs": [],
            "outputs": [
                {
                    "name": "",
                    "type": "bytes32",
                    "internalType": "bytes32"
                }
            ],
            "stateMutability": "view"
        },
        {
            "type": "function",
            "name": "DEFAULT_ADMIN_ROLE",
            "inputs": [],
            "outputs": [
                {
                    "name": "",
                    "type": "bytes32",
                    "internalType": "bytes32"
                }
            ],
            "stateMutability": "view"
        },
        {
            "type": "function",
            "name": "MAX_MINTS_PER_ADDRESS",
            "inputs": [],
            "outputs": [
                {
                    "name": "",
                    "type": "uint256",
                    "internalType": "uint256"
                }
            ],
            "stateMutability": "view"
        },
        {
            "type": "function",
            "name": "NFTMintCount",
            "inputs": [
                {
                    "name": "",
                    "type": "string",
                    "internalType": "string"
                }
            ],
            "outputs": [
                {
                    "name": "",
                    "type": "uint256",
                    "internalType": "uint256"
                }
            ],
            "stateMutability": "view"
        },
        {
            "type": "function",
            "name": "approve",
            "inputs": [
                {
                    "name": "to",
                    "type": "address",
                    "internalType": "address"
                },
                {
                    "name": "tokenId",
                    "type": "uint256",
                    "internalType": "uint256"
                }
            ],
            "outputs": [],
            "stateMutability": "nonpayable"
        },
        {
            "type": "function",
            "name": "balanceOf",
            "inputs": [
                {
                    "name": "owner",
                    "type": "address",
                    "internalType": "address"
                }
            ],
            "outputs": [
                {
                    "name": "",
                    "type": "uint256",
                    "internalType": "uint256"
                }
            ],
            "stateMutability": "view"
        },
        {
            "type": "function",
            "name": "burn",
            "inputs": [
                {
                    "name": "tokenId",
                    "type": "uint256",
                    "internalType": "uint256"
                }
            ],
            "outputs": [],
            "stateMutability": "nonpayable"
        },
        {
            "type": "function",
            "name": "createAndMintNFT",
            "inputs": [
                {
                    "name": "_tokenURI",
                    "type": "string",
                    "internalType": "string"
                }
            ],
            "outputs": [
                {
                    "name": "",
                    "type": "uint256",
                    "internalType": "uint256"
                }
            ],
            "stateMutability": "nonpayable"
        },
        {
            "type": "function",
            "name": "creatorToURI",
            "inputs": [
                {
                    "name": "",
                    "type": "address",
                    "internalType": "address"
                },
                {
                    "name": "",
                    "type": "uint256",
                    "internalType": "uint256"
                }
            ],
            "outputs": [
                {
                    "name": "",
                    "type": "string",
                    "internalType": "string"
                }
            ],
            "stateMutability": "view"
        },
        {
            "type": "function",
            "name": "getApproved",
            "inputs": [
                {
                    "name": "tokenId",
                    "type": "uint256",
                    "internalType": "uint256"
                }
            ],
            "outputs": [
                {
                    "name": "",
                    "type": "address",
                    "internalType": "address"
                }
            ],
            "stateMutability": "view"
        },
        {
            "type": "function",
            "name": "getCreatorURIs",
            "inputs": [
                {
                    "name": "creator",
                    "type": "address",
                    "internalType": "address"
                }
            ],
            "outputs": [
                {
                    "name": "",
                    "type": "string[]",
                    "internalType": "string[]"
                }
            ],
            "stateMutability": "view"
        },
        {
            "type": "function",
            "name": "getMintsPerAddress",
            "inputs": [
                {
                    "name": "creator",
                    "type": "address",
                    "internalType": "address"
                },
                {
                    "name": "_tokenURI",
                    "type": "string",
                    "internalType": "string"
                }
            ],
            "outputs": [
                {
                    "name": "",
                    "type": "uint256",
                    "internalType": "uint256"
                }
            ],
            "stateMutability": "view"
        },
        {
            "type": "function",
            "name": "getNFTMintCount",
            "inputs": [
                {
                    "name": "_tokenURI",
                    "type": "string",
                    "internalType": "string"
                }
            ],
            "outputs": [
                {
                    "name": "",
                    "type": "uint256",
                    "internalType": "uint256"
                }
            ],
            "stateMutability": "view"
        },
        {
            "type": "function",
            "name": "getRoleAdmin",
            "inputs": [
                {
                    "name": "role",
                    "type": "bytes32",
                    "internalType": "bytes32"
                }
            ],
            "outputs": [
                {
                    "name": "",
                    "type": "bytes32",
                    "internalType": "bytes32"
                }
            ],
            "stateMutability": "view"
        },
        {
            "type": "function",
            "name": "getTokenURI",
            "inputs": [
                {
                    "name": "tokenId",
                    "type": "uint256",
                    "internalType": "uint256"
                }
            ],
            "outputs": [
                {
                    "name": "",
                    "type": "string",
                    "internalType": "string"
                }
            ],
            "stateMutability": "view"
        },
        {
            "type": "function",
            "name": "grantRole",
            "inputs": [
                {
                    "name": "role",
                    "type": "bytes32",
                    "internalType": "bytes32"
                },
                {
                    "name": "account",
                    "type": "address",
                    "internalType": "address"
                }
            ],
            "outputs": [],
            "stateMutability": "nonpayable"
        },
        {
            "type": "function",
            "name": "hasRole",
            "inputs": [
                {
                    "name": "role",
                    "type": "bytes32",
                    "internalType": "bytes32"
                },
                {
                    "name": "account",
                    "type": "address",
                    "internalType": "address"
                }
            ],
            "outputs": [
                {
                    "name": "",
                    "type": "bool",
                    "internalType": "bool"
                }
            ],
            "stateMutability": "view"
        },
        {
            "type": "function",
            "name": "isApprovedForAll",
            "inputs": [
                {
                    "name": "owner",
                    "type": "address",
                    "internalType": "address"
                },
                {
                    "name": "operator",
                    "type": "address",
                    "internalType": "address"
                }
            ],
            "outputs": [
                {
                    "name": "",
                    "type": "bool",
                    "internalType": "bool"
                }
            ],
            "stateMutability": "view"
        },
        {
            "type": "function",
            "name": "isNFTblacklisted",
            "inputs": [
                {
                    "name": "",
                    "type": "string",
                    "internalType": "string"
                }
            ],
            "outputs": [
                {
                    "name": "",
                    "type": "bool",
                    "internalType": "bool"
                }
            ],
            "stateMutability": "view"
        },
        {
            "type": "function",
            "name": "mintExistingNFT",
            "inputs": [
                {
                    "name": "_tokenURI",
                    "type": "string",
                    "internalType": "string"
                }
            ],
            "outputs": [
                {
                    "name": "",
                    "type": "uint256",
                    "internalType": "uint256"
                }
            ],
            "stateMutability": "nonpayable"
        },
        {
            "type": "function",
            "name": "mintsPerAddress",
            "inputs": [
                {
                    "name": "",
                    "type": "address",
                    "internalType": "address"
                },
                {
                    "name": "",
                    "type": "string",
                    "internalType": "string"
                }
            ],
            "outputs": [
                {
                    "name": "",
                    "type": "uint256",
                    "internalType": "uint256"
                }
            ],
            "stateMutability": "view"
        },
        {
            "type": "function",
            "name": "name",
            "inputs": [],
            "outputs": [
                {
                    "name": "",
                    "type": "string",
                    "internalType": "string"
                }
            ],
            "stateMutability": "view"
        },
        {
            "type": "function",
            "name": "ownerOf",
            "inputs": [
                {
                    "name": "tokenId",
                    "type": "uint256",
                    "internalType": "uint256"
                }
            ],
            "outputs": [
                {
                    "name": "",
                    "type": "address",
                    "internalType": "address"
                }
            ],
            "stateMutability": "view"
        },
        {
            "type": "function",
            "name": "renounceRole",
            "inputs": [
                {
                    "name": "role",
                    "type": "bytes32",
                    "internalType": "bytes32"
                },
                {
                    "name": "callerConfirmation",
                    "type": "address",
                    "internalType": "address"
                }
            ],
            "outputs": [],
            "stateMutability": "nonpayable"
        },
        {
            "type": "function",
            "name": "revokeRole",
            "inputs": [
                {
                    "name": "role",
                    "type": "bytes32",
                    "internalType": "bytes32"
                },
                {
                    "name": "account",
                    "type": "address",
                    "internalType": "address"
                }
            ],
            "outputs": [],
            "stateMutability": "nonpayable"
        },
        {
            "type": "function",
            "name": "safeTransferFrom",
            "inputs": [
                {
                    "name": "from",
                    "type": "address",
                    "internalType": "address"
                },
                {
                    "name": "to",
                    "type": "address",
                    "internalType": "address"
                },
                {
                    "name": "tokenId",
                    "type": "uint256",
                    "internalType": "uint256"
                }
            ],
            "outputs": [],
            "stateMutability": "nonpayable"
        },
        {
            "type": "function",
            "name": "safeTransferFrom",
            "inputs": [
                {
                    "name": "from",
                    "type": "address",
                    "internalType": "address"
                },
                {
                    "name": "to",
                    "type": "address",
                    "internalType": "address"
                },
                {
                    "name": "tokenId",
                    "type": "uint256",
                    "internalType": "uint256"
                },
                {
                    "name": "data",
                    "type": "bytes",
                    "internalType": "bytes"
                }
            ],
            "outputs": [],
            "stateMutability": "nonpayable"
        },
        {
            "type": "function",
            "name": "setApprovalForAll",
            "inputs": [
                {
                    "name": "operator",
                    "type": "address",
                    "internalType": "address"
                },
                {
                    "name": "approved",
                    "type": "bool",
                    "internalType": "bool"
                }
            ],
            "outputs": [],
            "stateMutability": "nonpayable"
        },
        {
            "type": "function",
            "name": "setBlacklist",
            "inputs": [
                {
                    "name": "_tokenURI",
                    "type": "string",
                    "internalType": "string"
                },
                {
                    "name": "status",
                    "type": "bool",
                    "internalType": "bool"
                }
            ],
            "outputs": [],
            "stateMutability": "nonpayable"
        },
        {
            "type": "function",
            "name": "supportsInterface",
            "inputs": [
                {
                    "name": "interfaceId",
                    "type": "bytes4",
                    "internalType": "bytes4"
                }
            ],
            "outputs": [
                {
                    "name": "",
                    "type": "bool",
                    "internalType": "bool"
                }
            ],
            "stateMutability": "view"
        },
        {
            "type": "function",
            "name": "symbol",
            "inputs": [],
            "outputs": [
                {
                    "name": "",
                    "type": "string",
                    "internalType": "string"
                }
            ],
            "stateMutability": "view"
        },
        {
            "type": "function",
            "name": "tokenIdToURI",
            "inputs": [
                {
                    "name": "",
                    "type": "uint256",
                    "internalType": "uint256"
                }
            ],
            "outputs": [
                {
                    "name": "",
                    "type": "string",
                    "internalType": "string"
                }
            ],
            "stateMutability": "view"
        },
        {
            "type": "function",
            "name": "tokenURI",
            "inputs": [
                {
                    "name": "tokenId",
                    "type": "uint256",
                    "internalType": "uint256"
                }
            ],
            "outputs": [
                {
                    "name": "",
                    "type": "string",
                    "internalType": "string"
                }
            ],
            "stateMutability": "view"
        },
        {
            "type": "function",
            "name": "transferFrom",
            "inputs": [
                {
                    "name": "from",
                    "type": "address",
                    "internalType": "address"
                },
                {
                    "name": "to",
                    "type": "address",
                    "internalType": "address"
                },
                {
                    "name": "tokenId",
                    "type": "uint256",
                    "internalType": "uint256"
                }
            ],
            "outputs": [],
            "stateMutability": "nonpayable"
        },
        {
            "type": "event",
            "name": "Approval",
            "inputs": [
                {
                    "name": "owner",
                    "type": "address",
                    "indexed": true,
                    "internalType": "address"
                },
                {
                    "name": "approved",
                    "type": "address",
                    "indexed": true,
                    "internalType": "address"
                },
                {
                    "name": "tokenId",
                    "type": "uint256",
                    "indexed": true,
                    "internalType": "uint256"
                }
            ],
            "anonymous": false
        },
        {
            "type": "event",
            "name": "ApprovalForAll",
            "inputs": [
                {
                    "name": "owner",
                    "type": "address",
                    "indexed": true,
                    "internalType": "address"
                },
                {
                    "name": "operator",
                    "type": "address",
                    "indexed": true,
                    "internalType": "address"
                },
                {
                    "name": "approved",
                    "type": "bool",
                    "indexed": false,
                    "internalType": "bool"
                }
            ],
            "anonymous": false
        },
        {
            "type": "event",
            "name": "NFTCreated",
            "inputs": [
                {
                    "name": "tokenId",
                    "type": "uint256",
                    "indexed": true,
                    "internalType": "uint256"
                },
                {
                    "name": "_tokenURI",
                    "type": "string",
                    "indexed": false,
                    "internalType": "string"
                },
                {
                    "name": "creator",
                    "type": "address",
                    "indexed": true,
                    "internalType": "address"
                }
            ],
            "anonymous": false
        },
        {
            "type": "event",
            "name": "RoleAdminChanged",
            "inputs": [
                {
                    "name": "role",
                    "type": "bytes32",
                    "indexed": true,
                    "internalType": "bytes32"
                },
                {
                    "name": "previousAdminRole",
                    "type": "bytes32",
                    "indexed": true,
                    "internalType": "bytes32"
                },
                {
                    "name": "newAdminRole",
                    "type": "bytes32",
                    "indexed": true,
                    "internalType": "bytes32"
                }
            ],
            "anonymous": false
        },
        {
            "type": "event",
            "name": "RoleGranted",
            "inputs": [
                {
                    "name": "role",
                    "type": "bytes32",
                    "indexed": true,
                    "internalType": "bytes32"
                },
                {
                    "name": "account",
                    "type": "address",
                    "indexed": true,
                    "internalType": "address"
                },
                {
                    "name": "sender",
                    "type": "address",
                    "indexed": true,
                    "internalType": "address"
                }
            ],
            "anonymous": false
        },
        {
            "type": "event",
            "name": "RoleRevoked",
            "inputs": [
                {
                    "name": "role",
                    "type": "bytes32",
                    "indexed": true,
                    "internalType": "bytes32"
                },
                {
                    "name": "account",
                    "type": "address",
                    "indexed": true,
                    "internalType": "address"
                },
                {
                    "name": "sender",
                    "type": "address",
                    "indexed": true,
                    "internalType": "address"
                }
            ],
            "anonymous": false
        },
        {
            "type": "event",
            "name": "Transfer",
            "inputs": [
                {
                    "name": "from",
                    "type": "address",
                    "indexed": true,
                    "internalType": "address"
                },
                {
                    "name": "to",
                    "type": "address",
                    "indexed": true,
                    "internalType": "address"
                },
                {
                    "name": "tokenId",
                    "type": "uint256",
                    "indexed": true,
                    "internalType": "uint256"
                }
            ],
            "anonymous": false
        },
        {
            "type": "error",
            "name": "AccessControlBadConfirmation",
            "inputs": []
        },
        {
            "type": "error",
            "name": "AccessControlUnauthorizedAccount",
            "inputs": [
                {
                    "name": "account",
                    "type": "address",
                    "internalType": "address"
                },
                {
                    "name": "neededRole",
                    "type": "bytes32",
                    "internalType": "bytes32"
                }
            ]
        },
        {
            "type": "error",
            "name": "ERC721IncorrectOwner",
            "inputs": [
                {
                    "name": "sender",
                    "type": "address",
                    "internalType": "address"
                },
                {
                    "name": "tokenId",
                    "type": "uint256",
                    "internalType": "uint256"
                },
                {
                    "name": "owner",
                    "type": "address",
                    "internalType": "address"
                }
            ]
        },
        {
            "type": "error",
            "name": "ERC721InsufficientApproval",
            "inputs": [
                {
                    "name": "operator",
                    "type": "address",
                    "internalType": "address"
                },
                {
                    "name": "tokenId",
                    "type": "uint256",
                    "internalType": "uint256"
                }
            ]
        },
        {
            "type": "error",
            "name": "ERC721InvalidApprover",
            "inputs": [
                {
                    "name": "approver",
                    "type": "address",
                    "internalType": "address"
                }
            ]
        },
        {
            "type": "error",
            "name": "ERC721InvalidOperator",
            "inputs": [
                {
                    "name": "operator",
                    "type": "address",
                    "internalType": "address"
                }
            ]
        },
        {
            "type": "error",
            "name": "ERC721InvalidOwner",
            "inputs": [
                {
                    "name": "owner",
                    "type": "address",
                    "internalType": "address"
                }
            ]
        },
        {
            "type": "error",
            "name": "ERC721InvalidReceiver",
            "inputs": [
                {
                    "name": "receiver",
                    "type": "address",
                    "internalType": "address"
                }
            ]
        },
        {
            "type": "error",
            "name": "ERC721InvalidSender",
            "inputs": [
                {
                    "name": "sender",
                    "type": "address",
                    "internalType": "address"
                }
            ]
        },
        {
            "type": "error",
            "name": "ERC721NonexistentToken",
            "inputs": [
                {
                    "name": "tokenId",
                    "type": "uint256",
                    "internalType": "uint256"
                }
            ]
        },
        {
            "type": "error",
            "name": "IrysNFT__EmptyTokenURI",
            "inputs": []
        },
        {
            "type": "error",
            "name": "IrysNFT__MaxMintsPerAddressExceeded",
            "inputs": []
        },
        {
            "type": "error",
            "name": "IrysNFT__NFTIsBlacklisted",
            "inputs": []
        },
        {
            "type": "error",
            "name": "IrysNFT__URIAlreadyExists",
            "inputs": []
        },
        {
            "type": "error",
            "name": "ReentrancyGuardReentrantCall",
            "inputs": []
        }
    ],
    "bytecode": {
        "object": "0x60a06040525f600855348015610013575f5ffd5b50604051613f2a380380613f2a8339818101604052810190610035919061032e565b6040518060400160405280600781526020017f497279734e4654000000000000000000000000000000000000000000000000008152506040518060400160405280600481526020017f4952595300000000000000000000000000000000000000000000000000000000815250815f90816100af91906105b2565b5080600190816100bf91906105b2565b505050600160078190555082608081815250506101027fa49807205ce4d355092ef5a8a18f56e8913cf4a201fbe287825b095693c217758361013c60201b60201c565b506101337fa49807205ce4d355092ef5a8a18f56e8913cf4a201fbe287825b095693c217758261013c60201b60201c565b50505050610681565b5f61014d838361023260201b60201c565b61022857600160065f8581526020019081526020015f205f015f8473ffffffffffffffffffffffffffffffffffffffff1673ffffffffffffffffffffffffffffffffffffffff1681526020019081526020015f205f6101000a81548160ff0219169083151502179055506101c561029660201b60201c565b73ffffffffffffffffffffffffffffffffffffffff168273ffffffffffffffffffffffffffffffffffffffff16847f2f8788117e7eff1d82e926ec794901d17c78024a50270940304540a733656f0d60405160405180910390a46001905061022c565b5f90505b92915050565b5f60065f8481526020019081526020015f205f015f8373ffffffffffffffffffffffffffffffffffffffff1673ffffffffffffffffffffffffffffffffffffffff1681526020019081526020015f205f9054906101000a900460ff16905092915050565b5f33905090565b5f5ffd5b5f819050919050565b6102b3816102a1565b81146102bd575f5ffd5b50565b5f815190506102ce816102aa565b92915050565b5f73ffffffffffffffffffffffffffffffffffffffff82169050919050565b5f6102fd826102d4565b9050919050565b61030d816102f3565b8114610317575f5ffd5b50565b5f8151905061032881610304565b92915050565b5f5f5f606084860312156103455761034461029d565b5b5f610352868287016102c0565b93505060206103638682870161031a565b92505060406103748682870161031a565b9150509250925092565b5f81519050919050565b7f4e487b71000000000000000000000000000000000000000000000000000000005f52604160045260245ffd5b7f4e487b71000000000000000000000000000000000000000000000000000000005f52602260045260245ffd5b5f60028204905060018216806103f957607f821691505b60208210810361040c5761040b6103b5565b5b50919050565b5f819050815f5260205f209050919050565b5f6020601f8301049050919050565b5f82821b905092915050565b5f6008830261046e7fffffffffffffffffffffffffffffffffffffffffffffffffffffffffffffffff82610433565b6104788683610433565b95508019841693508086168417925050509392505050565b5f819050919050565b5f6104b36104ae6104a9846102a1565b610490565b6102a1565b9050919050565b5f819050919050565b6104cc83610499565b6104e06104d8826104ba565b84845461043f565b825550505050565b5f5f905090565b6104f76104e8565b6105028184846104c3565b505050565b5b818110156105255761051a5f826104ef565b600181019050610508565b5050565b601f82111561056a5761053b81610412565b61054484610424565b81016020851015610553578190505b61056761055f85610424565b830182610507565b50505b505050565b5f82821c905092915050565b5f61058a5f198460080261056f565b1980831691505092915050565b5f6105a2838361057b565b9150826002028217905092915050565b6105bb8261037e565b67ffffffffffffffff8111156105d4576105d3610388565b5b6105de82546103e2565b6105e9828285610529565b5f60209050601f83116001811461061a575f8415610608578287015190505b6106128582610597565b865550610679565b601f19841661062886610412565b5f5b8281101561064f5784890151825560018201915060208501945060208101905061062a565b8683101561066c5784890151610668601f89168261057b565b8355505b6001600288020188555050505b505050505050565b60805161388a6106a05f395f8181610d1501526114c1015261388a5ff3fe608060405234801561000f575f5ffd5b5060043610610204575f3560e01c806370a0823111610118578063b88d4fde116100ab578063c87b56dd1161007a578063c87b56dd1461066a578063d547741f1461069a578063e985e9c5146106b6578063e9e7d8d6146106e6578063ecb9e0851461071657610204565b8063b88d4fde146105d2578063bbc2305f146105ee578063bf5d3f241461061e578063c5edb1991461063a57610204565b806395d89b41116100e757806395d89b411461055c578063a217fddf1461057a578063a22cb46514610598578063b874ff43146105b457610204565b806370a08231146104ae57806374cfd043146104de57806375b238fc1461050e57806391d148541461052c57610204565b8063248a9ca31161019b57806342842e0e1161016a57806342842e0e146103e657806342966c6814610402578063467fdef11461041e57806352c0758d1461044e5780636352211e1461047e57610204565b8063248a9ca31461034e5780632f2ff15d1461037e57806336568abe1461039a5780633bb3a24d146103b657610204565b8063081812fc116101d7578063081812fc146102b6578063095ea7b3146102e657806321202b161461030257806323b872dd1461033257610204565b806301ffc9a71461020857806302219237146102385780630221e7851461026857806306fdde0314610298575b5f5ffd5b610222600480360381019061021d919061299b565b610746565b60405161022f91906129e0565b60405180910390f35b610252600480360381019061024d9190612b35565b610757565b60405161025f91906129e0565b60405180910390f35b610282600480360381019061027d9190612baf565b61078c565b60405161028f9190612c3a565b60405180910390f35b6102a0610827565b6040516102ad9190612c3a565b60405180910390f35b6102d060048036038101906102cb9190612baf565b6108b6565b6040516102dd9190612c99565b60405180910390f35b61030060048036038101906102fb9190612cdc565b6108d1565b005b61031c60048036038101906103179190612d1a565b6108e7565b6040516103299190612e48565b60405180910390f35b61034c60048036038101906103479190612e68565b6109f8565b005b61036860048036038101906103639190612eeb565b610af7565b6040516103759190612f25565b60405180910390f35b61039860048036038101906103939190612f3e565b610b14565b005b6103b460048036038101906103af9190612f3e565b610b36565b005b6103d060048036038101906103cb9190612baf565b610bb1565b6040516103dd9190612c3a565b60405180910390f35b61040060048036038101906103fb9190612e68565b610c52565b005b61041c60048036038101906104179190612baf565b610c71565b005b61043860048036038101906104339190612b35565b610c87565b6040516104459190612f8b565b60405180910390f35b61046860048036038101906104639190612b35565b610f1b565b6040516104759190612f8b565b60405180910390f35b61049860048036038101906104939190612baf565b610f48565b6040516104a59190612c99565b60405180910390f35b6104c860048036038101906104c39190612d1a565b610f59565b6040516104d59190612f8b565b60405180910390f35b6104f860048036038101906104f39190612b35565b61100f565b6040516105059190612f8b565b60405180910390f35b61051661138b565b6040516105239190612f25565b60405180910390f35b61054660048036038101906105419190612f3e565b6113af565b60405161055391906129e0565b60405180910390f35b610564611413565b6040516105719190612c3a565b60405180910390f35b6105826114a3565b60405161058f9190612f25565b60405180910390f35b6105b260048036038101906105ad9190612fce565b6114a9565b005b6105bc6114bf565b6040516105c99190612f8b565b60405180910390f35b6105ec60048036038101906105e791906130aa565b6114e3565b005b61060860048036038101906106039190612b35565b611500565b6040516106159190612f8b565b60405180910390f35b6106386004803603810190610633919061312a565b611527565b005b610654600480360381019061064f9190613184565b61158b565b6040516106619190612f8b565b60405180910390f35b610684600480360381019061067f9190612baf565b6115c3565b6040516106919190612c3a565b60405180910390f35b6106b460048036038101906106af9190612f3e565b611629565b005b6106d060048036038101906106cb91906131de565b61164b565b6040516106dd91906129e0565b60405180910390f35b61070060048036038101906106fb9190613184565b6116d9565b60405161070d9190612f8b565b60405180910390f35b610730600480360381019061072b9190612cdc565b61173c565b60405161073d9190612c3a565b60405180910390f35b5f610750826117ed565b9050919050565b600d818051602081018201805184825260208301602085012081835280955050505050505f915054906101000a900460ff1681565b600a602052805f5260405f205f9150905080546107a890613249565b80601f01602080910402602001604051908101604052809291908181526020018280546107d490613249565b801561081f5780601f106107f65761010080835404028352916020019161081f565b820191905f5260205f20905b81548152906001019060200180831161080257829003601f168201915b505050505081565b60605f805461083590613249565b80601f016020809104026020016040519081016040528092919081815260200182805461086190613249565b80156108ac5780601f10610883576101008083540402835291602001916108ac565b820191905f5260205f20905b81548152906001019060200180831161088f57829003601f168201915b5050505050905090565b5f6108c082611866565b506108ca826118ec565b9050919050565b6108e382826108de611925565b61192c565b5050565b6060600b5f8373ffffffffffffffffffffffffffffffffffffffff1673ffffffffffffffffffffffffffffffffffffffff1681526020019081526020015f20805480602002602001604051908101604052809291908181526020015f905b828210156109ed578382905f5260205f2001805461096290613249565b80601f016020809104026020016040519081016040528092919081815260200182805461098e90613249565b80156109d95780601f106109b0576101008083540402835291602001916109d9565b820191905f5260205f20905b8154815290600101906020018083116109bc57829003601f168201915b505050505081526020019060010190610945565b505050509050919050565b5f73ffffffffffffffffffffffffffffffffffffffff168273ffffffffffffffffffffffffffffffffffffffff1603610a68575f6040517f64a0ae92000000000000000000000000000000000000000000000000000000008152600401610a5f9190612c99565b60405180910390fd5b5f610a7b8383610a76611925565b61193e565b90508373ffffffffffffffffffffffffffffffffffffffff168173ffffffffffffffffffffffffffffffffffffffff1614610af1578382826040517f64283d7b000000000000000000000000000000000000000000000000000000008152600401610ae893929190613279565b60405180910390fd5b50505050565b5f60065f8381526020019081526020015f20600101549050919050565b610b1d82610af7565b610b2681611b49565b610b308383611b5d565b50505050565b610b3e611925565b73ffffffffffffffffffffffffffffffffffffffff168173ffffffffffffffffffffffffffffffffffffffff1614610ba2576040517f6697b23200000000000000000000000000000000000000000000000000000000815260040160405180910390fd5b610bac8282611c47565b505050565b6060600a5f8381526020019081526020015f208054610bcf90613249565b80601f0160208091040260200160405190810160405280929190818152602001828054610bfb90613249565b8015610c465780601f10610c1d57610100808354040283529160200191610c46565b820191905f5260205f20905b815481529060010190602001808311610c2957829003601f168201915b50505050509050919050565b610c6c83838360405180602001604052805f8152506114e3565b505050565b610c835f82610c7e611925565b61193e565b5050565b5f610c90611d31565b604051602001610c9f906132db565b6040516020818303038152906040528051906020012082604051602001610cc6919061331f565b6040516020818303038152906040528051906020012003610d13576040517f082881c400000000000000000000000000000000000000000000000000000000815260040160405180910390fd5b7f000000000000000000000000000000000000000000000000000000000000000060095f3373ffffffffffffffffffffffffffffffffffffffff1673ffffffffffffffffffffffffffffffffffffffff1681526020019081526020015f2083604051610d7f919061331f565b90815260200160405180910390205410610dc5576040517f55a8583500000000000000000000000000000000000000000000000000000000815260040160405180910390fd5b600d82604051610dd5919061331f565b90815260200160405180910390205f9054906101000a900460ff1615610e27576040517fdbe5eefa00000000000000000000000000000000000000000000000000000000815260040160405180910390fd5b5f60085f815480929190610e3a90613362565b91905055905082600a5f8381526020019081526020015f209081610e5e9190613549565b5060095f3373ffffffffffffffffffffffffffffffffffffffff1673ffffffffffffffffffffffffffffffffffffffff1681526020019081526020015f2083604051610eaa919061331f565b90815260200160405180910390205f815480929190610ec890613362565b9190505550600c83604051610edd919061331f565b90815260200160405180910390205f815480929190610efb90613362565b9190505550610f0a3382611d77565b80915050610f16611d94565b919050565b600c818051602081018201805184825260208301602085012081835280955050505050505f915090505481565b5f610f5282611866565b9050919050565b5f5f73ffffffffffffffffffffffffffffffffffffffff168273ffffffffffffffffffffffffffffffffffffffff1603610fca575f6040517f89c62b64000000000000000000000000000000000000000000000000000000008152600401610fc19190612c99565b60405180910390fd5b60035f8373ffffffffffffffffffffffffffffffffffffffff1673ffffffffffffffffffffffffffffffffffffffff1681526020019081526020015f20549050919050565b5f611018611d31565b5f33905060405160200161102b906132db565b6040516020818303038152906040528051906020012083604051602001611052919061331f565b604051602081830303815290604052805190602001200361109f576040517f082881c400000000000000000000000000000000000000000000000000000000815260040160405180910390fd5b5f600b5f8373ffffffffffffffffffffffffffffffffffffffff1673ffffffffffffffffffffffffffffffffffffffff1681526020019081526020015f208054905090505f5f90505b818110156111d85784604051602001611101919061331f565b60405160208183030381529060405280519060200120600b5f8573ffffffffffffffffffffffffffffffffffffffff1673ffffffffffffffffffffffffffffffffffffffff1681526020019081526020015f20828154811061116657611165613618565b5b905f5260205f200160405160200161117e91906136c5565b60405160208183030381529060405280519060200120036111cb576040517f49a3bbd100000000000000000000000000000000000000000000000000000000815260040160405180910390fd5b80806001019150506110e8565b50600b5f8373ffffffffffffffffffffffffffffffffffffffff1673ffffffffffffffffffffffffffffffffffffffff1681526020019081526020015f2084908060018154018082558091505060019003905f5260205f20015f9091909190915090816112459190613549565b505f60085f81548092919061125990613362565b91905055905084600a5f8381526020019081526020015f20908161127d9190613549565b5060095f8473ffffffffffffffffffffffffffffffffffffffff1673ffffffffffffffffffffffffffffffffffffffff1681526020019081526020015f20856040516112c9919061331f565b90815260200160405180910390205f8154809291906112e790613362565b9190505550600c856040516112fc919061331f565b90815260200160405180910390205f81548092919061131a90613362565b91905055506113298382611d77565b8273ffffffffffffffffffffffffffffffffffffffff16817f60f5c4e765af6564b65d3e786669dd137f70417ac89c65a6358e9ee47647c09f876040516113709190612c3a565b60405180910390a3809350505050611386611d94565b919050565b7fa49807205ce4d355092ef5a8a18f56e8913cf4a201fbe287825b095693c2177581565b5f60065f8481526020019081526020015f205f015f8373ffffffffffffffffffffffffffffffffffffffff1673ffffffffffffffffffffffffffffffffffffffff1681526020019081526020015f205f9054906101000a900460ff16905092915050565b60606001805461142290613249565b80601f016020809104026020016040519081016040528092919081815260200182805461144e90613249565b80156114995780601f1061147057610100808354040283529160200191611499565b820191905f5260205f20905b81548152906001019060200180831161147c57829003601f168201915b5050505050905090565b5f5f1b81565b6114bb6114b4611925565b8383611d9e565b5050565b7f000000000000000000000000000000000000000000000000000000000000000081565b6114ee8484846109f8565b6114fa84848484611f07565b50505050565b5f600c82604051611511919061331f565b9081526020016040518091039020549050919050565b7fa49807205ce4d355092ef5a8a18f56e8913cf4a201fbe287825b095693c2177561155181611b49565b81600d84604051611562919061331f565b90815260200160405180910390205f6101000a81548160ff021916908315150217905550505050565b6009602052815f5260405f20818051602081018201805184825260208301602085012081835280955050505050505f91509150505481565b60606115ce82611866565b505f6115d86120b9565b90505f8151116115f65760405180602001604052805f815250611621565b80611600846120f6565b6040516020016116119291906136db565b6040516020818303038152906040525b915050919050565b61163282610af7565b61163b81611b49565b6116458383611c47565b50505050565b5f60055f8473ffffffffffffffffffffffffffffffffffffffff1673ffffffffffffffffffffffffffffffffffffffff1681526020019081526020015f205f8373ffffffffffffffffffffffffffffffffffffffff1673ffffffffffffffffffffffffffffffffffffffff1681526020019081526020015f205f9054906101000a900460ff16905092915050565b5f60095f8473ffffffffffffffffffffffffffffffffffffffff1673ffffffffffffffffffffffffffffffffffffffff1681526020019081526020015f2082604051611725919061331f565b908152602001604051809103902054905092915050565b600b602052815f5260405f208181548110611755575f80fd5b905f5260205f20015f9150915050805461176e90613249565b80601f016020809104026020016040519081016040528092919081815260200182805461179a90613249565b80156117e55780601f106117bc576101008083540402835291602001916117e5565b820191905f5260205f20905b8154815290600101906020018083116117c857829003601f168201915b505050505081565b5f7f7965db0b000000000000000000000000000000000000000000000000000000007bffffffffffffffffffffffffffffffffffffffffffffffffffffffff1916827bffffffffffffffffffffffffffffffffffffffffffffffffffffffff1916148061185f575061185e826121c0565b5b9050919050565b5f5f611871836122a1565b90505f73ffffffffffffffffffffffffffffffffffffffff168173ffffffffffffffffffffffffffffffffffffffff16036118e357826040517f7e2732890000000000000000000000000000000000000000000000000000000081526004016118da9190612f8b565b60405180910390fd5b80915050919050565b5f60045f8381526020019081526020015f205f9054906101000a900473ffffffffffffffffffffffffffffffffffffffff169050919050565b5f33905090565b61193983838360016122da565b505050565b5f5f611949846122a1565b90505f73ffffffffffffffffffffffffffffffffffffffff168373ffffffffffffffffffffffffffffffffffffffff161461198a57611989818486612499565b5b5f73ffffffffffffffffffffffffffffffffffffffff168173ffffffffffffffffffffffffffffffffffffffff1614611a15576119c95f855f5f6122da565b600160035f8373ffffffffffffffffffffffffffffffffffffffff1673ffffffffffffffffffffffffffffffffffffffff1681526020019081526020015f205f82825403925050819055505b5f73ffffffffffffffffffffffffffffffffffffffff168573ffffffffffffffffffffffffffffffffffffffff1614611a9457600160035f8773ffffffffffffffffffffffffffffffffffffffff1673ffffffffffffffffffffffffffffffffffffffff1681526020019081526020015f205f82825401925050819055505b8460025f8681526020019081526020015f205f6101000a81548173ffffffffffffffffffffffffffffffffffffffff021916908373ffffffffffffffffffffffffffffffffffffffff160217905550838573ffffffffffffffffffffffffffffffffffffffff168273ffffffffffffffffffffffffffffffffffffffff167fddf252ad1be2c89b69c2b068fc378daa952ba7f163c4a11628f55a4df523b3ef60405160405180910390a4809150509392505050565b611b5a81611b55611925565b61255c565b50565b5f611b6883836113af565b611c3d57600160065f8581526020019081526020015f205f015f8473ffffffffffffffffffffffffffffffffffffffff1673ffffffffffffffffffffffffffffffffffffffff1681526020019081526020015f205f6101000a81548160ff021916908315150217905550611bda611925565b73ffffffffffffffffffffffffffffffffffffffff168273ffffffffffffffffffffffffffffffffffffffff16847f2f8788117e7eff1d82e926ec794901d17c78024a50270940304540a733656f0d60405160405180910390a460019050611c41565b5f90505b92915050565b5f611c5283836113af565b15611d27575f60065f8581526020019081526020015f205f015f8473ffffffffffffffffffffffffffffffffffffffff1673ffffffffffffffffffffffffffffffffffffffff1681526020019081526020015f205f6101000a81548160ff021916908315150217905550611cc4611925565b73ffffffffffffffffffffffffffffffffffffffff168273ffffffffffffffffffffffffffffffffffffffff16847ff6391f5c32d9c69d2a47ea670b442974b53935d1edc7fd64eb21e047a839171b60405160405180910390a460019050611d2b565b5f90505b92915050565b600260075403611d6d576040517f3ee5aeb500000000000000000000000000000000000000000000000000000000815260040160405180910390fd5b6002600781905550565b611d90828260405180602001604052805f8152506125ad565b5050565b6001600781905550565b5f73ffffffffffffffffffffffffffffffffffffffff168273ffffffffffffffffffffffffffffffffffffffff1603611e0e57816040517f5b08ba18000000000000000000000000000000000000000000000000000000008152600401611e059190612c99565b60405180910390fd5b8060055f8573ffffffffffffffffffffffffffffffffffffffff1673ffffffffffffffffffffffffffffffffffffffff1681526020019081526020015f205f8473ffffffffffffffffffffffffffffffffffffffff1673ffffffffffffffffffffffffffffffffffffffff1681526020019081526020015f205f6101000a81548160ff0219169083151502179055508173ffffffffffffffffffffffffffffffffffffffff168373ffffffffffffffffffffffffffffffffffffffff167f17307eab39ab6107e8899845ad3d59bd9653f200f220920489ca2b5937696c3183604051611efa91906129e0565b60405180910390a3505050565b5f8373ffffffffffffffffffffffffffffffffffffffff163b11156120b3578273ffffffffffffffffffffffffffffffffffffffff1663150b7a02611f4a611925565b8685856040518563ffffffff1660e01b8152600401611f6c9493929190613750565b6020604051808303815f875af1925050508015611fa757506040513d601f19601f82011682018060405250810190611fa491906137ae565b60015b612028573d805f8114611fd5576040519150601f19603f3d011682016040523d82523d5f602084013e611fda565b606091505b505f81510361202057836040517f64a0ae920000000000000000000000000000000000000000000000000000000081526004016120179190612c99565b60405180910390fd5b805181602001fd5b63150b7a0260e01b7bffffffffffffffffffffffffffffffffffffffffffffffffffffffff1916817bffffffffffffffffffffffffffffffffffffffffffffffffffffffff1916146120b157836040517f64a0ae920000000000000000000000000000000000000000000000000000000081526004016120a89190612c99565b60405180910390fd5b505b50505050565b60606040518060400160405280601981526020017f68747470733a2f2f676174657761792e697279732e78797a2f00000000000000815250905090565b60605f6001612104846125c8565b0190505f8167ffffffffffffffff81111561212257612121612a11565b5b6040519080825280601f01601f1916602001820160405280156121545781602001600182028036833780820191505090505b5090505f82602001820190505b6001156121b5578080600190039150507f3031323334353637383961626364656600000000000000000000000000000000600a86061a8153600a85816121aa576121a96137d9565b5b0494505f8503612161575b819350505050919050565b5f7f80ac58cd000000000000000000000000000000000000000000000000000000007bffffffffffffffffffffffffffffffffffffffffffffffffffffffff1916827bffffffffffffffffffffffffffffffffffffffffffffffffffffffff1916148061228a57507f5b5e139f000000000000000000000000000000000000000000000000000000007bffffffffffffffffffffffffffffffffffffffffffffffffffffffff1916827bffffffffffffffffffffffffffffffffffffffffffffffffffffffff1916145b8061229a575061229982612719565b5b9050919050565b5f60025f8381526020019081526020015f205f9054906101000a900473ffffffffffffffffffffffffffffffffffffffff169050919050565b808061231257505f73ffffffffffffffffffffffffffffffffffffffff168273ffffffffffffffffffffffffffffffffffffffff1614155b15612444575f61232184611866565b90505f73ffffffffffffffffffffffffffffffffffffffff168373ffffffffffffffffffffffffffffffffffffffff161415801561238b57508273ffffffffffffffffffffffffffffffffffffffff168173ffffffffffffffffffffffffffffffffffffffff1614155b801561239e575061239c818461164b565b155b156123e057826040517fa9fbf51f0000000000000000000000000000000000000000000000000000000081526004016123d79190612c99565b60405180910390fd5b811561244257838573ffffffffffffffffffffffffffffffffffffffff168273ffffffffffffffffffffffffffffffffffffffff167f8c5be1e5ebec7d5bd14f71427d1e84f3dd0314c0f7b2291e5b200ac8c7c3b92560405160405180910390a45b505b8360045f8581526020019081526020015f205f6101000a81548173ffffffffffffffffffffffffffffffffffffffff021916908373ffffffffffffffffffffffffffffffffffffffff16021790555050505050565b6124a4838383612782565b612557575f73ffffffffffffffffffffffffffffffffffffffff168373ffffffffffffffffffffffffffffffffffffffff160361251857806040517f7e27328900000000000000000000000000000000000000000000000000000000815260040161250f9190612f8b565b60405180910390fd5b81816040517f177e802f00000000000000000000000000000000000000000000000000000000815260040161254e929190613806565b60405180910390fd5b505050565b61256682826113af565b6125a95780826040517fe2517d3f0000000000000000000000000000000000000000000000000000000081526004016125a092919061382d565b60405180910390fd5b5050565b6125b78383612842565b6125c35f848484611f07565b505050565b5f5f5f90507a184f03e93ff9f4daa797ed6e38ed64bf6a1f0100000000000000008310612624577a184f03e93ff9f4daa797ed6e38ed64bf6a1f010000000000000000838161261a576126196137d9565b5b0492506040810190505b6d04ee2d6d415b85acef81000000008310612661576d04ee2d6d415b85acef81000000008381612657576126566137d9565b5b0492506020810190505b662386f26fc10000831061269057662386f26fc100008381612686576126856137d9565b5b0492506010810190505b6305f5e10083106126b9576305f5e10083816126af576126ae6137d9565b5b0492506008810190505b61271083106126de5761271083816126d4576126d36137d9565b5b0492506004810190505b6064831061270157606483816126f7576126f66137d9565b5b0492506002810190505b600a8310612710576001810190505b80915050919050565b5f7f01ffc9a7000000000000000000000000000000000000000000000000000000007bffffffffffffffffffffffffffffffffffffffffffffffffffffffff1916827bffffffffffffffffffffffffffffffffffffffffffffffffffffffff1916149050919050565b5f5f73ffffffffffffffffffffffffffffffffffffffff168373ffffffffffffffffffffffffffffffffffffffff161415801561283957508273ffffffffffffffffffffffffffffffffffffffff168473ffffffffffffffffffffffffffffffffffffffff1614806127fa57506127f9848461164b565b5b8061283857508273ffffffffffffffffffffffffffffffffffffffff16612820836118ec565b73ffffffffffffffffffffffffffffffffffffffff16145b5b90509392505050565b5f73ffffffffffffffffffffffffffffffffffffffff168273ffffffffffffffffffffffffffffffffffffffff16036128b2575f6040517f64a0ae920000000000000000000000000000000000000000000000000000000081526004016128a99190612c99565b60405180910390fd5b5f6128be83835f61193e565b90505f73ffffffffffffffffffffffffffffffffffffffff168173ffffffffffffffffffffffffffffffffffffffff1614612930575f6040517f73c6ac6e0000000000000000000000000000000000000000000000000000000081526004016129279190612c99565b60405180910390fd5b505050565b5f604051905090565b5f5ffd5b5f5ffd5b5f7fffffffff0000000000000000000000000000000000000000000000000000000082169050919050565b61297a81612946565b8114612984575f5ffd5b50565b5f8135905061299581612971565b92915050565b5f602082840312156129b0576129af61293e565b5b5f6129bd84828501612987565b91505092915050565b5f8115159050919050565b6129da816129c6565b82525050565b5f6020820190506129f35f8301846129d1565b92915050565b5f5ffd5b5f5ffd5b5f601f19601f8301169050919050565b7f4e487b71000000000000000000000000000000000000000000000000000000005f52604160045260245ffd5b612a4782612a01565b810181811067ffffffffffffffff82111715612a6657612a65612a11565b5b80604052505050565b5f612a78612935565b9050612a848282612a3e565b919050565b5f67ffffffffffffffff821115612aa357612aa2612a11565b5b612aac82612a01565b9050602081019050919050565b828183375f83830152505050565b5f612ad9612ad484612a89565b612a6f565b905082815260208101848484011115612af557612af46129fd565b5b612b00848285612ab9565b509392505050565b5f82601f830112612b1c57612b1b6129f9565b5b8135612b2c848260208601612ac7565b91505092915050565b5f60208284031215612b4a57612b4961293e565b5b5f82013567ffffffffffffffff811115612b6757612b66612942565b5b612b7384828501612b08565b91505092915050565b5f819050919050565b612b8e81612b7c565b8114612b98575f5ffd5b50565b5f81359050612ba981612b85565b92915050565b5f60208284031215612bc457612bc361293e565b5b5f612bd184828501612b9b565b91505092915050565b5f81519050919050565b5f82825260208201905092915050565b8281835e5f83830152505050565b5f612c0c82612bda565b612c168185612be4565b9350612c26818560208601612bf4565b612c2f81612a01565b840191505092915050565b5f6020820190508181035f830152612c528184612c02565b905092915050565b5f73ffffffffffffffffffffffffffffffffffffffff82169050919050565b5f612c8382612c5a565b9050919050565b612c9381612c79565b82525050565b5f602082019050612cac5f830184612c8a565b92915050565b612cbb81612c79565b8114612cc5575f5ffd5b50565b5f81359050612cd681612cb2565b92915050565b5f5f60408385031215612cf257612cf161293e565b5b5f612cff85828601612cc8565b9250506020612d1085828601612b9b565b9150509250929050565b5f60208284031215612d2f57612d2e61293e565b5b5f612d3c84828501612cc8565b91505092915050565b5f81519050919050565b5f82825260208201905092915050565b5f819050602082019050919050565b5f82825260208201905092915050565b5f612d8882612bda565b612d928185612d6e565b9350612da2818560208601612bf4565b612dab81612a01565b840191505092915050565b5f612dc18383612d7e565b905092915050565b5f602082019050919050565b5f612ddf82612d45565b612de98185612d4f565b935083602082028501612dfb85612d5f565b805f5b85811015612e365784840389528151612e178582612db6565b9450612e2283612dc9565b925060208a01995050600181019050612dfe565b50829750879550505050505092915050565b5f6020820190508181035f830152612e608184612dd5565b905092915050565b5f5f5f60608486031215612e7f57612e7e61293e565b5b5f612e8c86828701612cc8565b9350506020612e9d86828701612cc8565b9250506040612eae86828701612b9b565b9150509250925092565b5f819050919050565b612eca81612eb8565b8114612ed4575f5ffd5b50565b5f81359050612ee581612ec1565b92915050565b5f60208284031215612f0057612eff61293e565b5b5f612f0d84828501612ed7565b91505092915050565b612f1f81612eb8565b82525050565b5f602082019050612f385f830184612f16565b92915050565b5f5f60408385031215612f5457612f5361293e565b5b5f612f6185828601612ed7565b9250506020612f7285828601612cc8565b9150509250929050565b612f8581612b7c565b82525050565b5f602082019050612f9e5f830184612f7c565b92915050565b612fad816129c6565b8114612fb7575f5ffd5b50565b5f81359050612fc881612fa4565b92915050565b5f5f60408385031215612fe457612fe361293e565b5b5f612ff185828601612cc8565b925050602061300285828601612fba565b9150509250929050565b5f67ffffffffffffffff82111561302657613025612a11565b5b61302f82612a01565b9050602081019050919050565b5f61304e6130498461300c565b612a6f565b90508281526020810184848401111561306a576130696129fd565b5b613075848285612ab9565b509392505050565b5f82601f830112613091576130906129f9565b5b81356130a184826020860161303c565b91505092915050565b5f5f5f5f608085870312156130c2576130c161293e565b5b5f6130cf87828801612cc8565b94505060206130e087828801612cc8565b93505060406130f187828801612b9b565b925050606085013567ffffffffffffffff81111561311257613111612942565b5b61311e8782880161307d565b91505092959194509250565b5f5f604083850312156131405761313f61293e565b5b5f83013567ffffffffffffffff81111561315d5761315c612942565b5b61316985828601612b08565b925050602061317a85828601612fba565b9150509250929050565b5f5f6040838503121561319a5761319961293e565b5b5f6131a785828601612cc8565b925050602083013567ffffffffffffffff8111156131c8576131c7612942565b5b6131d485828601612b08565b9150509250929050565b5f5f604083850312156131f4576131f361293e565b5b5f61320185828601612cc8565b925050602061321285828601612cc8565b9150509250929050565b7f4e487b71000000000000000000000000000000000000000000000000000000005f52602260045260245ffd5b5f600282049050600182168061326057607f821691505b6020821081036132735761327261321c565b5b50919050565b5f60608201905061328c5f830186612c8a565b6132996020830185612f7c565b6132a66040830184612c8a565b949350505050565b5f81905092915050565b50565b5f6132c65f836132ae565b91506132d1826132b8565b5f82019050919050565b5f6132e5826132bb565b9150819050919050565b5f6132f982612bda565b61330381856132ae565b9350613313818560208601612bf4565b80840191505092915050565b5f61332a82846132ef565b915081905092915050565b7f4e487b71000000000000000000000000000000000000000000000000000000005f52601160045260245ffd5b5f61336c82612b7c565b91507fffffffffffffffffffffffffffffffffffffffffffffffffffffffffffffffff820361339e5761339d613335565b5b600182019050919050565b5f819050815f5260205f209050919050565b5f6020601f8301049050919050565b5f82821b905092915050565b5f600883026134057fffffffffffffffffffffffffffffffffffffffffffffffffffffffffffffffff826133ca565b61340f86836133ca565b95508019841693508086168417925050509392505050565b5f819050919050565b5f61344a61344561344084612b7c565b613427565b612b7c565b9050919050565b5f819050919050565b61346383613430565b61347761346f82613451565b8484546133d6565b825550505050565b5f5f905090565b61348e61347f565b61349981848461345a565b505050565b5b818110156134bc576134b15f82613486565b60018101905061349f565b5050565b601f821115613501576134d2816133a9565b6134db846133bb565b810160208510156134ea578190505b6134fe6134f6856133bb565b83018261349e565b50505b505050565b5f82821c905092915050565b5f6135215f1984600802613506565b1980831691505092915050565b5f6135398383613512565b9150826002028217905092915050565b61355282612bda565b67ffffffffffffffff81111561356b5761356a612a11565b5b6135758254613249565b6135808282856134c0565b5f60209050601f8311600181146135b1575f841561359f578287015190505b6135a9858261352e565b865550613610565b601f1984166135bf866133a9565b5f5b828110156135e6578489015182556001820191506020850194506020810190506135c1565b8683101561360357848901516135ff601f891682613512565b8355505b6001600288020188555050505b505050505050565b7f4e487b71000000000000000000000000000000000000000000000000000000005f52603260045260245ffd5b5f815461365181613249565b61365b81866132ae565b9450600182165f8114613675576001811461368a576136bc565b60ff19831686528115158202860193506136bc565b613693856133a9565b5f5b838110156136b457815481890152600182019150602081019050613695565b838801955050505b50505092915050565b5f6136d08284613645565b915081905092915050565b5f6136e682856132ef565b91506136f282846132ef565b91508190509392505050565b5f81519050919050565b5f82825260208201905092915050565b5f613722826136fe565b61372c8185613708565b935061373c818560208601612bf4565b61374581612a01565b840191505092915050565b5f6080820190506137635f830187612c8a565b6137706020830186612c8a565b61377d6040830185612f7c565b818103606083015261378f8184613718565b905095945050505050565b5f815190506137a881612971565b92915050565b5f602082840312156137c3576137c261293e565b5b5f6137d08482850161379a565b91505092915050565b7f4e487b71000000000000000000000000000000000000000000000000000000005f52601260045260245ffd5b5f6040820190506138195f830185612c8a565b6138266020830184612f7c565b9392505050565b5f6040820190506138405f830185612c8a565b61384d6020830184612f16565b939250505056fea2646970667358221220f39b6aebbfc4ba14b53a1c22b74cc5da4e12be00c1d5b9df0c36afdaa51ef24f64736f6c634300081d0033",
        "linkReferences": {}
    },
    "methodIdentifiers": {
        "ADMIN_ROLE()": "75b238fc",
        "DEFAULT_ADMIN_ROLE()": "a217fddf",
        "MAX_MINTS_PER_ADDRESS()": "b874ff43",
        "NFTMintCount(string)": "52c0758d",
        "approve(address,uint256)": "095ea7b3",
        "balanceOf(address)": "70a08231",
        "burn(uint256)": "42966c68",
        "createAndMintNFT(string)": "74cfd043",
        "creatorToURI(address,uint256)": "ecb9e085",
        "getApproved(uint256)": "081812fc",
        "getCreatorURIs(address)": "21202b16",
        "getMintsPerAddress(address,string)": "e9e7d8d6",
        "getNFTMintCount(string)": "bbc2305f",
        "getRoleAdmin(bytes32)": "248a9ca3",
        "getTokenURI(uint256)": "3bb3a24d",
        "grantRole(bytes32,address)": "2f2ff15d",
        "hasRole(bytes32,address)": "91d14854",
        "isApprovedForAll(address,address)": "e985e9c5",
        "isNFTblacklisted(string)": "02219237",
        "mintExistingNFT(string)": "467fdef1",
        "mintsPerAddress(address,string)": "c5edb199",
        "name()": "06fdde03",
        "ownerOf(uint256)": "6352211e",
        "renounceRole(bytes32,address)": "36568abe",
        "revokeRole(bytes32,address)": "d547741f",
        "safeTransferFrom(address,address,uint256)": "42842e0e",
        "safeTransferFrom(address,address,uint256,bytes)": "b88d4fde",
        "setApprovalForAll(address,bool)": "a22cb465",
        "setBlacklist(string,bool)": "bf5d3f24",
        "supportsInterface(bytes4)": "01ffc9a7",
        "symbol()": "95d89b41",
        "tokenIdToURI(uint256)": "0221e785",
        "tokenURI(uint256)": "c87b56dd",
        "transferFrom(address,address,uint256)": "23b872dd"
    },
    "id": 15
}